{
  "_format": "hh-sol-artifact-1",
  "contractName": "PooTokenClonePresale",
  "sourceName": "contracts/PooTokenClonePresale.sol",
  "abi": [
    {
      "inputs": [
        {
          "internalType": "address",
          "name": "_token",
          "type": "address"
        }
      ],
      "stateMutability": "nonpayable",
      "type": "constructor"
    },
    {
      "anonymous": false,
      "inputs": [
        {
          "indexed": true,
          "internalType": "address",
          "name": "previousOwner",
          "type": "address"
        },
        {
          "indexed": true,
          "internalType": "address",
          "name": "newOwner",
          "type": "address"
        }
      ],
      "name": "OwnershipTransferred",
      "type": "event"
    },
    {
      "anonymous": false,
      "inputs": [
        {
          "indexed": false,
          "internalType": "address",
          "name": "account",
          "type": "address"
        }
      ],
      "name": "Paused",
      "type": "event"
    },
    {
      "anonymous": false,
      "inputs": [
        {
          "indexed": true,
          "internalType": "address",
          "name": "User",
          "type": "address"
        },
        {
          "indexed": true,
          "internalType": "uint256",
          "name": "AmountReceived",
          "type": "uint256"
        },
        {
          "indexed": true,
          "internalType": "uint256",
          "name": "AmountSent",
          "type": "uint256"
        },
        {
          "indexed": false,
          "internalType": "address",
          "name": "ReceivedToken",
          "type": "address"
        }
      ],
      "name": "TokenSwapped",
      "type": "event"
    },
    {
      "anonymous": false,
      "inputs": [
        {
          "indexed": false,
          "internalType": "address",
          "name": "account",
          "type": "address"
        }
      ],
      "name": "Unpaused",
      "type": "event"
    },
    {
      "inputs": [],
      "name": "RATE",
      "outputs": [
        {
          "internalType": "uint256",
          "name": "",
          "type": "uint256"
        }
      ],
      "stateMutability": "view",
      "type": "function"
    },
    {
      "inputs": [],
      "name": "TOKEN",
      "outputs": [
        {
          "internalType": "contract ERC20",
          "name": "",
          "type": "address"
        }
      ],
      "stateMutability": "view",
      "type": "function"
    },
    {
      "inputs": [],
      "name": "getETHBalance",
      "outputs": [
        {
          "internalType": "uint256",
          "name": "",
          "type": "uint256"
        }
      ],
      "stateMutability": "view",
      "type": "function"
    },
    {
      "inputs": [],
      "name": "getTokenBalance",
      "outputs": [
        {
          "internalType": "uint256",
          "name": "",
          "type": "uint256"
        }
      ],
      "stateMutability": "view",
      "type": "function"
    },
    {
      "inputs": [],
      "name": "owner",
      "outputs": [
        {
          "internalType": "address",
          "name": "",
          "type": "address"
        }
      ],
      "stateMutability": "view",
      "type": "function"
    },
    {
      "inputs": [],
      "name": "pause",
      "outputs": [],
      "stateMutability": "nonpayable",
      "type": "function"
    },
    {
      "inputs": [],
      "name": "paused",
      "outputs": [
        {
          "internalType": "bool",
          "name": "",
          "type": "bool"
        }
      ],
      "stateMutability": "view",
      "type": "function"
    },
    {
      "inputs": [],
      "name": "renounceOwnership",
      "outputs": [],
      "stateMutability": "nonpayable",
      "type": "function"
    },
    {
      "inputs": [
        {
          "internalType": "uint256",
          "name": "_rate",
          "type": "uint256"
        }
      ],
      "name": "setRates",
      "outputs": [],
      "stateMutability": "nonpayable",
      "type": "function"
    },
    {
      "inputs": [
        {
          "internalType": "uint256",
          "name": "_amount",
          "type": "uint256"
        }
      ],
      "name": "swapETHForToken",
      "outputs": [],
      "stateMutability": "payable",
      "type": "function"
    },
    {
      "inputs": [
        {
          "internalType": "address",
          "name": "newOwner",
          "type": "address"
        }
      ],
      "name": "transferOwnership",
      "outputs": [],
      "stateMutability": "nonpayable",
      "type": "function"
    },
    {
      "inputs": [],
      "name": "unpause",
      "outputs": [],
      "stateMutability": "nonpayable",
      "type": "function"
    },
    {
      "inputs": [
        {
          "internalType": "address",
          "name": "_token",
          "type": "address"
        },
        {
          "internalType": "uint256",
          "name": "_amount",
          "type": "uint256"
        }
      ],
      "name": "withdrawERC20",
      "outputs": [],
      "stateMutability": "nonpayable",
      "type": "function"
    },
    {
      "inputs": [
        {
          "internalType": "uint256",
          "name": "_amount",
          "type": "uint256"
        }
      ],
      "name": "withdrawTOKEN",
      "outputs": [],
      "stateMutability": "nonpayable",
      "type": "function"
    },
    {
      "stateMutability": "payable",
      "type": "receive"
    }
  ],
  "bytecode": "0x60806040526402aea5400060035566038d7ea4c68000600455671bc16d674ec800006005553480156200003157600080fd5b506040516200205838038062002058833981810160405281019062000057919062000288565b620000776200006b6200015260201b60201c565b6200015a60201b60201c565b60008060146101000a81548160ff02191690831515021790555060018081905550600073ffffffffffffffffffffffffffffffffffffffff168173ffffffffffffffffffffffffffffffffffffffff16036200010a576040517f08c379a000000000000000000000000000000000000000000000000000000000815260040162000101906200031b565b60405180910390fd5b80600260006101000a81548173ffffffffffffffffffffffffffffffffffffffff021916908373ffffffffffffffffffffffffffffffffffffffff160217905550506200033d565b600033905090565b60008060009054906101000a900473ffffffffffffffffffffffffffffffffffffffff169050816000806101000a81548173ffffffffffffffffffffffffffffffffffffffff021916908373ffffffffffffffffffffffffffffffffffffffff1602179055508173ffffffffffffffffffffffffffffffffffffffff168173ffffffffffffffffffffffffffffffffffffffff167f8be0079c531659141344cd1fd0a4f28419497f9722a3daafe3b4186f6b6457e060405160405180910390a35050565b600080fd5b600073ffffffffffffffffffffffffffffffffffffffff82169050919050565b6000620002508262000223565b9050919050565b620002628162000243565b81146200026e57600080fd5b50565b600081519050620002828162000257565b92915050565b600060208284031215620002a157620002a06200021e565b5b6000620002b18482850162000271565b91505092915050565b600082825260208201905092915050565b7f43616e6e6f7420736574207a65726f2061646472657373000000000000000000600082015250565b600062000303601783620002ba565b91506200031082620002cb565b602082019050919050565b600060208201905081810360008301526200033681620002f4565b9050919050565b611d0b806200034d6000396000f3fe6080604052600436106100e15760003560e01c8063715018a61161007f5780638456cb59116100595780638456cb59146105b55780638da5cb5b146105cc578063a1db9782146105f7578063f2fde38b146106205761043d565b8063715018a61461054857806382b2e2571461055f57806382bfefc81461058a5761043d565b80635c975abb116100bb5780635c975abb1461049e578063664e9704146104c95780636cde90f5146104f45780636e9472981461051d5761043d565b80631b3d2cb3146104425780632d1babed1461045e5780633f4ba83a146104875761043d565b3661043d576100ee610649565b6000349050600454811015610138576040517f08c379a000000000000000000000000000000000000000000000000000000000815260040161012f906112c0565b60405180910390fd5b60055481111561017d576040517f08c379a00000000000000000000000000000000000000000000000000000000081526004016101749061132c565b60405180910390fd5b6000610187610698565b9050600081116101cc576040517f08c379a00000000000000000000000000000000000000000000000000000000081526004016101c3906113be565b60405180910390fd5b60006101d661073b565b90506000806101e6858486610745565b9150915060008111156102a4576000803373ffffffffffffffffffffffffffffffffffffffff168360405161021a9061140f565b60006040518083038185875af1925050503d8060008114610257576040519150601f19603f3d011682016040523d82523d6000602084013e61025c565b606091505b5091509150816102a1576040517f08c379a000000000000000000000000000000000000000000000000000000000815260040161029890611470565b60405180910390fd5b50505b6000806102af610784565b73ffffffffffffffffffffffffffffffffffffffff16876040516102d29061140f565b60006040518083038185875af1925050503d806000811461030f576040519150601f19603f3d011682016040523d82523d6000602084013e610314565b606091505b5091509150600260009054906101000a900473ffffffffffffffffffffffffffffffffffffffff1673ffffffffffffffffffffffffffffffffffffffff1663a9059cbb33866040518363ffffffff1660e01b81526004016103769291906114ea565b6020604051808303816000875af1158015610395573d6000803e3d6000fd5b505050506040513d601f19601f820116820180604052508101906103b99190611550565b5086843373ffffffffffffffffffffffffffffffffffffffff167fe58828e568875c218e7c4f66d422638817d0153c141cd4629e5b69e42e0999fb600260009054906101000a900473ffffffffffffffffffffffffffffffffffffffff16604051610424919061157d565b60405180910390a45050505050505061043b6107ad565b005b600080fd5b61045c600480360381019061045791906115c4565b6107b6565b005b34801561046a57600080fd5b50610485600480360381019061048091906115c4565b610b53565b005b34801561049357600080fd5b5061049c610b65565b005b3480156104aa57600080fd5b506104b3610b77565b6040516104c09190611600565b60405180910390f35b3480156104d557600080fd5b506104de610b8d565b6040516104eb919061161b565b60405180910390f35b34801561050057600080fd5b5061051b600480360381019061051691906115c4565b610b93565b005b34801561052957600080fd5b50610532610d1d565b60405161053f919061161b565b60405180910390f35b34801561055457600080fd5b5061055d610d25565b005b34801561056b57600080fd5b50610574610698565b604051610581919061161b565b60405180910390f35b34801561059657600080fd5b5061059f610d39565b6040516105ac9190611695565b60405180910390f35b3480156105c157600080fd5b506105ca610d5f565b005b3480156105d857600080fd5b506105e1610784565b6040516105ee919061157d565b60405180910390f35b34801561060357600080fd5b5061061e600480360381019061061991906116dc565b610d71565b005b34801561062c57600080fd5b506106476004803603810190610642919061171c565b610f3e565b005b60026001540361068e576040517f08c379a000000000000000000000000000000000000000000000000000000000815260040161068590611795565b60405180910390fd5b6002600181905550565b6000600260009054906101000a900473ffffffffffffffffffffffffffffffffffffffff1673ffffffffffffffffffffffffffffffffffffffff166370a08231306040518263ffffffff1660e01b81526004016106f5919061157d565b602060405180830381865afa158015610712573d6000803e3d6000fd5b505050506040513d601f19601f8201168201806040525081019061073691906117ca565b905090565b6000600354905090565b60008083856107549190611826565b91508282111561077b5783838161076e5761076d611868565b5b048503905082915061077c565b5b935093915050565b60008060009054906101000a900473ffffffffffffffffffffffffffffffffffffffff16905090565b60018081905550565b6107be610fc1565b6107c6610649565b60045481101561080b576040517f08c379a0000000000000000000000000000000000000000000000000000000008152600401610802906112c0565b60405180910390fd5b600554811115610850576040517f08c379a00000000000000000000000000000000000000000000000000000000081526004016108479061132c565b60405180910390fd5b80341015610893576040517f08c379a000000000000000000000000000000000000000000000000000000000815260040161088a906118e3565b60405180910390fd5b600061089d610698565b9050600081116108e2576040517f08c379a00000000000000000000000000000000000000000000000000000000081526004016108d9906113be565b60405180910390fd5b60006108ec61073b565b90506000806108fc858486610745565b9150915060008111156109ba576000803373ffffffffffffffffffffffffffffffffffffffff16836040516109309061140f565b60006040518083038185875af1925050503d806000811461096d576040519150601f19603f3d011682016040523d82523d6000602084013e610972565b606091505b5091509150816109b7576040517f08c379a00000000000000000000000000000000000000000000000000000000081526004016109ae90611470565b60405180910390fd5b50505b6000806109c5610784565b73ffffffffffffffffffffffffffffffffffffffff16876040516109e89061140f565b60006040518083038185875af1925050503d8060008114610a25576040519150601f19603f3d011682016040523d82523d6000602084013e610a2a565b606091505b5091509150600260009054906101000a900473ffffffffffffffffffffffffffffffffffffffff1673ffffffffffffffffffffffffffffffffffffffff1663a9059cbb33866040518363ffffffff1660e01b8152600401610a8c9291906114ea565b6020604051808303816000875af1158015610aab573d6000803e3d6000fd5b505050506040513d601f19601f82011682018060405250810190610acf9190611550565b5086843373ffffffffffffffffffffffffffffffffffffffff167fe58828e568875c218e7c4f66d422638817d0153c141cd4629e5b69e42e0999fb600260009054906101000a900473ffffffffffffffffffffffffffffffffffffffff16604051610b3a919061157d565b60405180910390a4505050505050610b506107ad565b50565b610b5b61100b565b8060038190555050565b610b6d61100b565b610b75611089565b565b60008060149054906101000a900460ff16905090565b60035481565b610b9b61100b565b80600260009054906101000a900473ffffffffffffffffffffffffffffffffffffffff1673ffffffffffffffffffffffffffffffffffffffff166370a08231306040518263ffffffff1660e01b8152600401610bf7919061157d565b602060405180830381865afa158015610c14573d6000803e3d6000fd5b505050506040513d601f19601f82011682018060405250810190610c3891906117ca565b1015610c79576040517f08c379a0000000000000000000000000000000000000000000000000000000008152600401610c709061194f565b60405180910390fd5b600260009054906101000a900473ffffffffffffffffffffffffffffffffffffffff1673ffffffffffffffffffffffffffffffffffffffff1663a9059cbb33836040518363ffffffff1660e01b8152600401610cd69291906114ea565b6020604051808303816000875af1158015610cf5573d6000803e3d6000fd5b505050506040513d601f19601f82011682018060405250810190610d199190611550565b5050565b600047905090565b610d2d61100b565b610d3760006110eb565b565b600260009054906101000a900473ffffffffffffffffffffffffffffffffffffffff1681565b610d6761100b565b610d6f6111af565b565b610d7961100b565b600073ffffffffffffffffffffffffffffffffffffffff168273ffffffffffffffffffffffffffffffffffffffff1603610de8576040517f08c379a0000000000000000000000000000000000000000000000000000000008152600401610ddf906119e1565b60405180910390fd5b60008111610e2b576040517f08c379a0000000000000000000000000000000000000000000000000000000008152600401610e2290611a4d565b60405180910390fd5b600260009054906101000a900473ffffffffffffffffffffffffffffffffffffffff1673ffffffffffffffffffffffffffffffffffffffff168273ffffffffffffffffffffffffffffffffffffffff1603610ebb576040517f08c379a0000000000000000000000000000000000000000000000000000000008152600401610eb290611adf565b60405180910390fd5b8173ffffffffffffffffffffffffffffffffffffffff1663a9059cbb33836040518363ffffffff1660e01b8152600401610ef69291906114ea565b6020604051808303816000875af1158015610f15573d6000803e3d6000fd5b505050506040513d601f19601f82011682018060405250810190610f399190611550565b505050565b610f4661100b565b600073ffffffffffffffffffffffffffffffffffffffff168173ffffffffffffffffffffffffffffffffffffffff1603610fb5576040517f08c379a0000000000000000000000000000000000000000000000000000000008152600401610fac90611b71565b60405180910390fd5b610fbe816110eb565b50565b610fc9610b77565b15611009576040517f08c379a000000000000000000000000000000000000000000000000000000000815260040161100090611bdd565b60405180910390fd5b565b611013611212565b73ffffffffffffffffffffffffffffffffffffffff16611031610784565b73ffffffffffffffffffffffffffffffffffffffff1614611087576040517f08c379a000000000000000000000000000000000000000000000000000000000815260040161107e90611c49565b60405180910390fd5b565b61109161121a565b60008060146101000a81548160ff0219169083151502179055507f5db9ee0a495bf2e6ff9c91a7834c1ba4fdd244a5e8aa4e537bd38aeae4b073aa6110d4611212565b6040516110e1919061157d565b60405180910390a1565b60008060009054906101000a900473ffffffffffffffffffffffffffffffffffffffff169050816000806101000a81548173ffffffffffffffffffffffffffffffffffffffff021916908373ffffffffffffffffffffffffffffffffffffffff1602179055508173ffffffffffffffffffffffffffffffffffffffff168173ffffffffffffffffffffffffffffffffffffffff167f8be0079c531659141344cd1fd0a4f28419497f9722a3daafe3b4186f6b6457e060405160405180910390a35050565b6111b7610fc1565b6001600060146101000a81548160ff0219169083151502179055507f62e78cea01bee320cd4e420270b5ea74000d11b0c9f74754ebdbfc544b05a2586111fb611212565b604051611208919061157d565b60405180910390a1565b600033905090565b611222610b77565b611261576040517f08c379a000000000000000000000000000000000000000000000000000000000815260040161125890611cb5565b60405180910390fd5b565b600082825260208201905092915050565b7f416d6f756e7420746f6f20736d616c6c00000000000000000000000000000000600082015250565b60006112aa601083611263565b91506112b582611274565b602082019050919050565b600060208201905081810360008301526112d98161129d565b9050919050565b7f416d6f756e7420746f6f206d7563680000000000000000000000000000000000600082015250565b6000611316600f83611263565b9150611321826112e0565b602082019050919050565b6000602082019050818103600083015261134581611309565b9050919050565b7f436f6e747261637420646f65736e27742068617665207375666669656e74206660008201527f756e647300000000000000000000000000000000000000000000000000000000602082015250565b60006113a8602483611263565b91506113b38261134c565b604082019050919050565b600060208201905081810360008301526113d78161139b565b9050919050565b600081905092915050565b50565b60006113f96000836113de565b9150611404826113e9565b600082019050919050565b600061141a826113ec565b9150819050919050565b7f4661696c656420746f2073656e64204574686572000000000000000000000000600082015250565b600061145a601483611263565b915061146582611424565b602082019050919050565b600060208201905081810360008301526114898161144d565b9050919050565b600073ffffffffffffffffffffffffffffffffffffffff82169050919050565b60006114bb82611490565b9050919050565b6114cb816114b0565b82525050565b6000819050919050565b6114e4816114d1565b82525050565b60006040820190506114ff60008301856114c2565b61150c60208301846114db565b9392505050565b600080fd5b60008115159050919050565b61152d81611518565b811461153857600080fd5b50565b60008151905061154a81611524565b92915050565b60006020828403121561156657611565611513565b5b60006115748482850161153b565b91505092915050565b600060208201905061159260008301846114c2565b92915050565b6115a1816114d1565b81146115ac57600080fd5b50565b6000813590506115be81611598565b92915050565b6000602082840312156115da576115d9611513565b5b60006115e8848285016115af565b91505092915050565b6115fa81611518565b82525050565b600060208201905061161560008301846115f1565b92915050565b600060208201905061163060008301846114db565b92915050565b6000819050919050565b600061165b61165661165184611490565b611636565b611490565b9050919050565b600061166d82611640565b9050919050565b600061167f82611662565b9050919050565b61168f81611674565b82525050565b60006020820190506116aa6000830184611686565b92915050565b6116b9816114b0565b81146116c457600080fd5b50565b6000813590506116d6816116b0565b92915050565b600080604083850312156116f3576116f2611513565b5b6000611701858286016116c7565b9250506020611712858286016115af565b9150509250929050565b60006020828403121561173257611731611513565b5b6000611740848285016116c7565b91505092915050565b7f5265656e7472616e637947756172643a207265656e7472616e742063616c6c00600082015250565b600061177f601f83611263565b915061178a82611749565b602082019050919050565b600060208201905081810360008301526117ae81611772565b9050919050565b6000815190506117c481611598565b92915050565b6000602082840312156117e0576117df611513565b5b60006117ee848285016117b5565b91505092915050565b7f4e487b7100000000000000000000000000000000000000000000000000000000600052601160045260246000fd5b6000611831826114d1565b915061183c836114d1565b925082820261184a816114d1565b91508282048414831517611861576118606117f7565b5b5092915050565b7f4e487b7100000000000000000000000000000000000000000000000000000000600052601260045260246000fd5b7f455448206e6f7420657175616c20746f20616d6f756e74000000000000000000600082015250565b60006118cd601783611263565b91506118d882611897565b602082019050919050565b600060208201905081810360008301526118fc816118c0565b9050919050565b7f4e6f7420656e6f75676820544f4b454e20696e20636f6e747261637400000000600082015250565b6000611939601c83611263565b915061194482611903565b602082019050919050565b600060208201905081810360008301526119688161192c565b9050919050565b7f43616e6e6f74207769746864726177207a65726f206164647265737320746f6b60008201527f656e000000000000000000000000000000000000000000000000000000000000602082015250565b60006119cb602283611263565b91506119d68261196f565b604082019050919050565b600060208201905081810360008301526119fa816119be565b9050919050565b7f43616e6e6f74207769746864726177207a65726f20616d6f756e740000000000600082015250565b6000611a37601b83611263565b9150611a4282611a01565b602082019050919050565b60006020820190508181036000830152611a6681611a2a565b9050919050565b7f43616e6e6f7420776974686472617720544f4b454e2066726f6d20636f6e747260008201527f6163740000000000000000000000000000000000000000000000000000000000602082015250565b6000611ac9602383611263565b9150611ad482611a6d565b604082019050919050565b60006020820190508181036000830152611af881611abc565b9050919050565b7f4f776e61626c653a206e6577206f776e657220697320746865207a65726f206160008201527f6464726573730000000000000000000000000000000000000000000000000000602082015250565b6000611b5b602683611263565b9150611b6682611aff565b604082019050919050565b60006020820190508181036000830152611b8a81611b4e565b9050919050565b7f5061757361626c653a2070617573656400000000000000000000000000000000600082015250565b6000611bc7601083611263565b9150611bd282611b91565b602082019050919050565b60006020820190508181036000830152611bf681611bba565b9050919050565b7f4f776e61626c653a2063616c6c6572206973206e6f7420746865206f776e6572600082015250565b6000611c33602083611263565b9150611c3e82611bfd565b602082019050919050565b60006020820190508181036000830152611c6281611c26565b9050919050565b7f5061757361626c653a206e6f7420706175736564000000000000000000000000600082015250565b6000611c9f601483611263565b9150611caa82611c69565b602082019050919050565b60006020820190508181036000830152611cce81611c92565b905091905056fea2646970667358221220cda4bb8b3f1cd8559b9287d57ff8d58788b2e454828eecd0248bfc504fcfba1e64736f6c63430008130033",
  "linkReferences": {},
  "deployedLinkReferences": {}
}